{
  "_format": "hh-sol-artifact-1",
  "contractName": "NFTPresale",
  "sourceName": "contracts/NFTPresale.sol",
  "abi": [
    {
      "inputs": [
        {
          "internalType": "string",
          "name": "name",
          "type": "string"
        },
        {
          "internalType": "string",
          "name": "symbol",
          "type": "string"
        },
        {
          "internalType": "uint256",
          "name": "_presalePrice",
          "type": "uint256"
        },
        {
          "internalType": "uint256",
          "name": "_presaleMaxSupply",
          "type": "uint256"
        }
      ],
      "stateMutability": "nonpayable",
      "type": "constructor"
    },
    {
      "anonymous": false,
      "inputs": [
        {
          "indexed": true,
          "internalType": "address",
          "name": "owner",
          "type": "address"
        },
        {
          "indexed": true,
          "internalType": "address",
          "name": "approved",
          "type": "address"
        },
        {
          "indexed": true,
          "internalType": "uint256",
          "name": "tokenId",
          "type": "uint256"
        }
      ],
      "name": "Approval",
      "type": "event"
    },
    {
      "anonymous": false,
      "inputs": [
        {
          "indexed": true,
          "internalType": "address",
          "name": "owner",
          "type": "address"
        },
        {
          "indexed": true,
          "internalType": "address",
          "name": "operator",
          "type": "address"
        },
        {
          "indexed": false,
          "internalType": "bool",
          "name": "approved",
          "type": "bool"
        }
      ],
      "name": "ApprovalForAll",
      "type": "event"
    },
    {
      "anonymous": false,
      "inputs": [
        {
          "indexed": true,
          "internalType": "address",
          "name": "previousOwner",
          "type": "address"
        },
        {
          "indexed": true,
          "internalType": "address",
          "name": "newOwner",
          "type": "address"
        }
      ],
      "name": "OwnershipTransferred",
      "type": "event"
    },
    {
      "anonymous": false,
      "inputs": [
        {
          "indexed": false,
          "internalType": "uint256",
          "name": "startDate",
          "type": "uint256"
        },
        {
          "indexed": false,
          "internalType": "uint256",
          "name": "endDate",
          "type": "uint256"
        }
      ],
      "name": "PresaleDatesSet",
      "type": "event"
    },
    {
      "anonymous": false,
      "inputs": [
        {
          "indexed": true,
          "internalType": "address",
          "name": "buyer",
          "type": "address"
        },
        {
          "indexed": true,
          "internalType": "uint256",
          "name": "tokenId",
          "type": "uint256"
        }
      ],
      "name": "PresaleMint",
      "type": "event"
    },
    {
      "anonymous": false,
      "inputs": [
        {
          "indexed": false,
          "internalType": "uint256",
          "name": "price",
          "type": "uint256"
        }
      ],
      "name": "PresalePriceSet",
      "type": "event"
    },
    {
      "anonymous": false,
      "inputs": [
        {
          "indexed": true,
          "internalType": "address",
          "name": "from",
          "type": "address"
        },
        {
          "indexed": true,
          "internalType": "address",
          "name": "to",
          "type": "address"
        },
        {
          "indexed": true,
          "internalType": "uint256",
          "name": "tokenId",
          "type": "uint256"
        }
      ],
      "name": "Transfer",
      "type": "event"
    },
    {
      "inputs": [
        {
          "internalType": "address",
          "name": "to",
          "type": "address"
        },
        {
          "internalType": "uint256",
          "name": "tokenId",
          "type": "uint256"
        }
      ],
      "name": "approve",
      "outputs": [],
      "stateMutability": "nonpayable",
      "type": "function"
    },
    {
      "inputs": [
        {
          "internalType": "address",
          "name": "owner",
          "type": "address"
        }
      ],
      "name": "balanceOf",
      "outputs": [
        {
          "internalType": "uint256",
          "name": "",
          "type": "uint256"
        }
      ],
      "stateMutability": "view",
      "type": "function"
    },
    {
      "inputs": [],
      "name": "endDate",
      "outputs": [
        {
          "internalType": "uint256",
          "name": "",
          "type": "uint256"
        }
      ],
      "stateMutability": "view",
      "type": "function"
    },
    {
      "inputs": [
        {
          "internalType": "uint256",
          "name": "tokenId",
          "type": "uint256"
        }
      ],
      "name": "getApproved",
      "outputs": [
        {
          "internalType": "address",
          "name": "",
          "type": "address"
        }
      ],
      "stateMutability": "view",
      "type": "function"
    },
    {
      "inputs": [
        {
          "internalType": "address",
          "name": "owner",
          "type": "address"
        },
        {
          "internalType": "address",
          "name": "operator",
          "type": "address"
        }
      ],
      "name": "isApprovedForAll",
      "outputs": [
        {
          "internalType": "bool",
          "name": "",
          "type": "bool"
        }
      ],
      "stateMutability": "view",
      "type": "function"
    },
    {
      "inputs": [
        {
          "internalType": "uint256",
          "name": "amount",
          "type": "uint256"
        }
      ],
      "name": "mintPresale",
      "outputs": [],
      "stateMutability": "payable",
      "type": "function"
    },
    {
      "inputs": [],
      "name": "name",
      "outputs": [
        {
          "internalType": "string",
          "name": "",
          "type": "string"
        }
      ],
      "stateMutability": "view",
      "type": "function"
    },
    {
      "inputs": [],
      "name": "owner",
      "outputs": [
        {
          "internalType": "address",
          "name": "",
          "type": "address"
        }
      ],
      "stateMutability": "view",
      "type": "function"
    },
    {
      "inputs": [
        {
          "internalType": "uint256",
          "name": "tokenId",
          "type": "uint256"
        }
      ],
      "name": "ownerOf",
      "outputs": [
        {
          "internalType": "address",
          "name": "",
          "type": "address"
        }
      ],
      "stateMutability": "view",
      "type": "function"
    },
    {
      "inputs": [],
      "name": "presaleActive",
      "outputs": [
        {
          "internalType": "bool",
          "name": "",
          "type": "bool"
        }
      ],
      "stateMutability": "view",
      "type": "function"
    },
    {
      "inputs": [],
      "name": "presaleMaxSupply",
      "outputs": [
        {
          "internalType": "uint256",
          "name": "",
          "type": "uint256"
        }
      ],
      "stateMutability": "view",
      "type": "function"
    },
    {
      "inputs": [
        {
          "internalType": "address",
          "name": "",
          "type": "address"
        }
      ],
      "name": "presaleMinted",
      "outputs": [
        {
          "internalType": "uint256",
          "name": "",
          "type": "uint256"
        }
      ],
      "stateMutability": "view",
      "type": "function"
    },
    {
      "inputs": [],
      "name": "presalePrice",
      "outputs": [
        {
          "internalType": "uint256",
          "name": "",
          "type": "uint256"
        }
      ],
      "stateMutability": "view",
      "type": "function"
    },
    {
      "inputs": [],
      "name": "presaleSupply",
      "outputs": [
        {
          "internalType": "uint256",
          "name": "",
          "type": "uint256"
        }
      ],
      "stateMutability": "view",
      "type": "function"
    },
    {
      "inputs": [],
      "name": "renounceOwnership",
      "outputs": [],
      "stateMutability": "nonpayable",
      "type": "function"
    },
    {
      "inputs": [
        {
          "internalType": "address",
          "name": "from",
          "type": "address"
        },
        {
          "internalType": "address",
          "name": "to",
          "type": "address"
        },
        {
          "internalType": "uint256",
          "name": "tokenId",
          "type": "uint256"
        }
      ],
      "name": "safeTransferFrom",
      "outputs": [],
      "stateMutability": "nonpayable",
      "type": "function"
    },
    {
      "inputs": [
        {
          "internalType": "address",
          "name": "from",
          "type": "address"
        },
        {
          "internalType": "address",
          "name": "to",
          "type": "address"
        },
        {
          "internalType": "uint256",
          "name": "tokenId",
          "type": "uint256"
        },
        {
          "internalType": "bytes",
          "name": "data",
          "type": "bytes"
        }
      ],
      "name": "safeTransferFrom",
      "outputs": [],
      "stateMutability": "nonpayable",
      "type": "function"
    },
    {
      "inputs": [
        {
          "internalType": "address",
          "name": "operator",
          "type": "address"
        },
        {
          "internalType": "bool",
          "name": "approved",
          "type": "bool"
        }
      ],
      "name": "setApprovalForAll",
      "outputs": [],
      "stateMutability": "nonpayable",
      "type": "function"
    },
    {
      "inputs": [
        {
          "internalType": "uint256",
          "name": "_startDate",
          "type": "uint256"
        },
        {
          "internalType": "uint256",
          "name": "_endDate",
          "type": "uint256"
        }
      ],
      "name": "setPresaleDates",
      "outputs": [],
      "stateMutability": "nonpayable",
      "type": "function"
    },
    {
      "inputs": [
        {
          "internalType": "uint256",
          "name": "_presalePrice",
          "type": "uint256"
        }
      ],
      "name": "setPresalePrice",
      "outputs": [],
      "stateMutability": "nonpayable",
      "type": "function"
    },
    {
      "inputs": [],
      "name": "startDate",
      "outputs": [
        {
          "internalType": "uint256",
          "name": "",
          "type": "uint256"
        }
      ],
      "stateMutability": "view",
      "type": "function"
    },
    {
      "inputs": [],
      "name": "startPresale",
      "outputs": [],
      "stateMutability": "nonpayable",
      "type": "function"
    },
    {
      "inputs": [],
      "name": "stopPresale",
      "outputs": [],
      "stateMutability": "nonpayable",
      "type": "function"
    },
    {
      "inputs": [
        {
          "internalType": "bytes4",
          "name": "interfaceId",
          "type": "bytes4"
        }
      ],
      "name": "supportsInterface",
      "outputs": [
        {
          "internalType": "bool",
          "name": "",
          "type": "bool"
        }
      ],
      "stateMutability": "view",
      "type": "function"
    },
    {
      "inputs": [],
      "name": "symbol",
      "outputs": [
        {
          "internalType": "string",
          "name": "",
          "type": "string"
        }
      ],
      "stateMutability": "view",
      "type": "function"
    },
    {
      "inputs": [
        {
          "internalType": "uint256",
          "name": "tokenId",
          "type": "uint256"
        }
      ],
      "name": "tokenURI",
      "outputs": [
        {
          "internalType": "string",
          "name": "",
          "type": "string"
        }
      ],
      "stateMutability": "view",
      "type": "function"
    },
    {
      "inputs": [
        {
          "internalType": "address",
          "name": "from",
          "type": "address"
        },
        {
          "internalType": "address",
          "name": "to",
          "type": "address"
        },
        {
          "internalType": "uint256",
          "name": "tokenId",
          "type": "uint256"
        }
      ],
      "name": "transferFrom",
      "outputs": [],
      "stateMutability": "nonpayable",
      "type": "function"
    },
    {
      "inputs": [
        {
          "internalType": "address",
          "name": "newOwner",
          "type": "address"
        }
      ],
      "name": "transferOwnership",
      "outputs": [],
      "stateMutability": "nonpayable",
      "type": "function"
    },
    {
      "inputs": [],
      "name": "withdraw",
      "outputs": [],
      "stateMutability": "nonpayable",
      "type": "function"
    }
  ],
  "bytecode": "0x60806040523480156200001157600080fd5b5060405162003bab38038062003bab83398181016040528101906200003791906200034e565b838381600090816200004a91906200063f565b5080600190816200005c91906200063f565b5050506200007f62000073620000b260201b60201c565b620000ba60201b60201c565b81600881905550806009819055506000600b60006101000a81548160ff0219169083151502179055505050505062000726565b600033905090565b6000600660009054906101000a900473ffffffffffffffffffffffffffffffffffffffff16905081600660006101000a81548173ffffffffffffffffffffffffffffffffffffffff021916908373ffffffffffffffffffffffffffffffffffffffff1602179055508173ffffffffffffffffffffffffffffffffffffffff168173ffffffffffffffffffffffffffffffffffffffff167f8be0079c531659141344cd1fd0a4f28419497f9722a3daafe3b4186f6b6457e060405160405180910390a35050565b6000604051905090565b600080fd5b600080fd5b600080fd5b600080fd5b6000601f19601f8301169050919050565b7f4e487b7100000000000000000000000000000000000000000000000000000000600052604160045260246000fd5b620001e9826200019e565b810181811067ffffffffffffffff821117156200020b576200020a620001af565b5b80604052505050565b60006200022062000180565b90506200022e8282620001de565b919050565b600067ffffffffffffffff821115620002515762000250620001af565b5b6200025c826200019e565b9050602081019050919050565b60005b83811015620002895780820151818401526020810190506200026c565b60008484015250505050565b6000620002ac620002a68462000233565b62000214565b905082815260208101848484011115620002cb57620002ca62000199565b5b620002d884828562000269565b509392505050565b600082601f830112620002f857620002f762000194565b5b81516200030a84826020860162000295565b91505092915050565b6000819050919050565b620003288162000313565b81146200033457600080fd5b50565b60008151905062000348816200031d565b92915050565b600080600080608085870312156200036b576200036a6200018a565b5b600085015167ffffffffffffffff8111156200038c576200038b6200018f565b5b6200039a87828801620002e0565b945050602085015167ffffffffffffffff811115620003be57620003bd6200018f565b5b620003cc87828801620002e0565b9350506040620003df8782880162000337565b9250506060620003f28782880162000337565b91505092959194509250565b600081519050919050565b7f4e487b7100000000000000000000000000000000000000000000000000000000600052602260045260246000fd5b600060028204905060018216806200045157607f821691505b60208210810362000467576200046662000409565b5b50919050565b60008190508160005260206000209050919050565b60006020601f8301049050919050565b600082821b905092915050565b600060088302620004d17fffffffffffffffffffffffffffffffffffffffffffffffffffffffffffffffff8262000492565b620004dd868362000492565b95508019841693508086168417925050509392505050565b6000819050919050565b6000620005206200051a620005148462000313565b620004f5565b62000313565b9050919050565b6000819050919050565b6200053c83620004ff565b620005546200054b8262000527565b8484546200049f565b825550505050565b600090565b6200056b6200055c565b6200057881848462000531565b505050565b5b81811015620005a0576200059460008262000561565b6001810190506200057e565b5050565b601f821115620005ef57620005b9816200046d565b620005c48462000482565b81016020851015620005d4578190505b620005ec620005e38562000482565b8301826200057d565b50505b505050565b600082821c905092915050565b60006200061460001984600802620005f4565b1980831691505092915050565b60006200062f838362000601565b9150826002028217905092915050565b6200064a82620003fe565b67ffffffffffffffff811115620006665762000665620001af565b5b62000672825462000438565b6200067f828285620005a4565b600060209050601f831160018114620006b75760008415620006a2578287015190505b620006ae858262000621565b8655506200071e565b601f198416620006c7866200046d565b60005b82811015620006f157848901518255600182019150602085019450602081019050620006ca565b868310156200071157848901516200070d601f89168262000601565b8355505b6001600288020188555050505b505050505050565b61347580620007366000396000f3fe6080604052600436106101c15760003560e01c80636352211e116100f7578063b88d4fde11610095578063dc12abb511610064578063dc12abb514610609578063e985e9c514610632578063f2fde38b1461066f578063f759867a14610698576101c1565b8063b88d4fde1461053b578063bc660cac14610564578063c24a0f8b146105a1578063c87b56dd146105cc576101c1565b80638da5cb5b116100d15780638da5cb5b1461049157806395d89b41146104bc578063a22cb465146104e7578063b3a196e914610510576101c1565b80636352211e1461040057806370a082311461043d578063715018a61461047a576101c1565b80630b97bc86116101645780633549345e1161013e5780633549345e1461036c5780633ccfd60b1461039557806342842e0e146103ac57806353135ca0146103d5576101c1565b80630b97bc86146103015780631ad2ad1a1461032c57806323b872dd14610343576101c1565b806306fdde03116101a057806306fdde0314610245578063081812fc1461027057806308fc299b146102ad578063095ea7b3146102d8576101c1565b80620e7fa8146101c657806301ffc9a7146101f157806304c98b2b1461022e575b600080fd5b3480156101d257600080fd5b506101db6106b4565b6040516101e891906121c2565b60405180910390f35b3480156101fd57600080fd5b5061021860048036038101906102139190612249565b6106ba565b6040516102259190612291565b60405180910390f35b34801561023a57600080fd5b5061024361079c565b005b34801561025157600080fd5b5061025a6107c1565b604051610267919061233c565b60405180910390f35b34801561027c57600080fd5b506102976004803603810190610292919061238a565b610853565b6040516102a491906123f8565b60405180910390f35b3480156102b957600080fd5b506102c2610899565b6040516102cf91906121c2565b60405180910390f35b3480156102e457600080fd5b506102ff60048036038101906102fa919061243f565b61089f565b005b34801561030d57600080fd5b506103166109b6565b60405161032391906121c2565b60405180910390f35b34801561033857600080fd5b506103416109bc565b005b34801561034f57600080fd5b5061036a6004803603810190610365919061247f565b6109e1565b005b34801561037857600080fd5b50610393600480360381019061038e919061238a565b610a41565b005b3480156103a157600080fd5b506103aa610a8c565b005b3480156103b857600080fd5b506103d360048036038101906103ce919061247f565b610aea565b005b3480156103e157600080fd5b506103ea610b0a565b6040516103f79190612291565b60405180910390f35b34801561040c57600080fd5b506104276004803603810190610422919061238a565b610b1d565b60405161043491906123f8565b60405180910390f35b34801561044957600080fd5b50610464600480360381019061045f91906124d2565b610ba3565b60405161047191906121c2565b60405180910390f35b34801561048657600080fd5b5061048f610c5a565b005b34801561049d57600080fd5b506104a6610c6e565b6040516104b391906123f8565b60405180910390f35b3480156104c857600080fd5b506104d1610c98565b6040516104de919061233c565b60405180910390f35b3480156104f357600080fd5b5061050e6004803603810190610509919061252b565b610d2a565b005b34801561051c57600080fd5b50610525610d40565b60405161053291906121c2565b60405180910390f35b34801561054757600080fd5b50610562600480360381019061055d91906126a0565b610d46565b005b34801561057057600080fd5b5061058b600480360381019061058691906124d2565b610da8565b60405161059891906121c2565b60405180910390f35b3480156105ad57600080fd5b506105b6610dc0565b6040516105c391906121c2565b60405180910390f35b3480156105d857600080fd5b506105f360048036038101906105ee919061238a565b610dc6565b604051610600919061233c565b60405180910390f35b34801561061557600080fd5b50610630600480360381019061062b9190612723565b610e2e565b005b34801561063e57600080fd5b5061065960048036038101906106549190612763565b610ec7565b6040516106669190612291565b60405180910390f35b34801561067b57600080fd5b50610696600480360381019061069191906124d2565b610f5b565b005b6106b260048036038101906106ad919061238a565b610fde565b005b60085481565b60007f80ac58cd000000000000000000000000000000000000000000000000000000007bffffffffffffffffffffffffffffffffffffffffffffffffffffffff1916827bffffffffffffffffffffffffffffffffffffffffffffffffffffffff1916148061078557507f5b5e139f000000000000000000000000000000000000000000000000000000007bffffffffffffffffffffffffffffffffffffffffffffffffffffffff1916827bffffffffffffffffffffffffffffffffffffffffffffffffffffffff1916145b806107955750610794826111d2565b5b9050919050565b6107a461123c565b6001600b60006101000a81548160ff021916908315150217905550565b6060600080546107d0906127d2565b80601f01602080910402602001604051908101604052809291908181526020018280546107fc906127d2565b80156108495780601f1061081e57610100808354040283529160200191610849565b820191906000526020600020905b81548152906001019060200180831161082c57829003601f168201915b5050505050905090565b600061085e826112ba565b6004600083815260200190815260200160002060009054906101000a900473ffffffffffffffffffffffffffffffffffffffff169050919050565b60095481565b60006108aa82610b1d565b90508073ffffffffffffffffffffffffffffffffffffffff168373ffffffffffffffffffffffffffffffffffffffff160361091a576040517f08c379a000000000000000000000000000000000000000000000000000000000815260040161091190612875565b60405180910390fd5b8073ffffffffffffffffffffffffffffffffffffffff16610939611305565b73ffffffffffffffffffffffffffffffffffffffff161480610968575061096781610962611305565b610ec7565b5b6109a7576040517f08c379a000000000000000000000000000000000000000000000000000000000815260040161099e90612907565b60405180910390fd5b6109b1838361130d565b505050565b600c5481565b6109c461123c565b6000600b60006101000a81548160ff021916908315150217905550565b6109f26109ec611305565b826113c6565b610a31576040517f08c379a0000000000000000000000000000000000000000000000000000000008152600401610a2890612999565b60405180910390fd5b610a3c83838361145b565b505050565b610a4961123c565b806008819055507fde2679f0520779e3b7aab8aba7cc48285715b5304b782ddb1be44e2e52b414ec600854604051610a8191906121c2565b60405180910390a150565b610a9461123c565b6000479050610aa1610c6e565b73ffffffffffffffffffffffffffffffffffffffff166108fc829081150290604051600060405180830381858888f19350505050158015610ae6573d6000803e3d6000fd5b5050565b610b0583838360405180602001604052806000815250610d46565b505050565b600b60009054906101000a900460ff1681565b600080610b2983611754565b9050600073ffffffffffffffffffffffffffffffffffffffff168173ffffffffffffffffffffffffffffffffffffffff1603610b9a576040517f08c379a0000000000000000000000000000000000000000000000000000000008152600401610b9190612a05565b60405180910390fd5b80915050919050565b60008073ffffffffffffffffffffffffffffffffffffffff168273ffffffffffffffffffffffffffffffffffffffff1603610c13576040517f08c379a0000000000000000000000000000000000000000000000000000000008152600401610c0a90612a97565b60405180910390fd5b600360008373ffffffffffffffffffffffffffffffffffffffff1673ffffffffffffffffffffffffffffffffffffffff168152602001908152602001600020549050919050565b610c6261123c565b610c6c6000611791565b565b6000600660009054906101000a900473ffffffffffffffffffffffffffffffffffffffff16905090565b606060018054610ca7906127d2565b80601f0160208091040260200160405190810160405280929190818152602001828054610cd3906127d2565b8015610d205780601f10610cf557610100808354040283529160200191610d20565b820191906000526020600020905b815481529060010190602001808311610d0357829003601f168201915b5050505050905090565b610d3c610d35611305565b8383611857565b5050565b600a5481565b610d57610d51611305565b836113c6565b610d96576040517f08c379a0000000000000000000000000000000000000000000000000000000008152600401610d8d90612999565b60405180910390fd5b610da2848484846119c3565b50505050565b600e6020528060005260406000206000915090505481565b600d5481565b6060610dd1826112ba565b6000610ddb611a1f565b90506000815111610dfb5760405180602001604052806000815250610e26565b80610e0584611a36565b604051602001610e16929190612af3565b6040516020818303038152906040525b915050919050565b610e3661123c565b808210610e78576040517f08c379a0000000000000000000000000000000000000000000000000000000008152600401610e6f90612b89565b60405180910390fd5b81600c8190555080600d819055507fb9fcfc31761649b028c8dcebf69cf332456b07971fe4e96fa47ca0c6151c3a32600c54600d54604051610ebb929190612ba9565b60405180910390a15050565b6000600560008473ffffffffffffffffffffffffffffffffffffffff1673ffffffffffffffffffffffffffffffffffffffff16815260200190815260200160002060008373ffffffffffffffffffffffffffffffffffffffff1673ffffffffffffffffffffffffffffffffffffffff16815260200190815260200160002060009054906101000a900460ff16905092915050565b610f6361123c565b600073ffffffffffffffffffffffffffffffffffffffff168173ffffffffffffffffffffffffffffffffffffffff1603610fd2576040517f08c379a0000000000000000000000000000000000000000000000000000000008152600401610fc990612c44565b60405180910390fd5b610fdb81611791565b50565b600b60009054906101000a900460ff1661102d576040517f08c379a000000000000000000000000000000000000000000000000000000000815260040161102490612cb0565b60405180910390fd5b600c5442101580156110415750600d544211155b611080576040517f08c379a000000000000000000000000000000000000000000000000000000000815260040161107790612d42565b60405180910390fd5b600081116110c3576040517f08c379a00000000000000000000000000000000000000000000000000000000081526004016110ba90612dae565b60405180910390fd5b60095481600a546110d49190612dfd565b1115611115576040517f08c379a000000000000000000000000000000000000000000000000000000000815260040161110c90612e7d565b60405180910390fd5b6000816008546111259190612e9d565b90508034101561116a576040517f08c379a000000000000000000000000000000000000000000000000000000000815260040161116190612f2b565b60405180910390fd5b803411156111c5573373ffffffffffffffffffffffffffffffffffffffff166108fc82346111989190612f4b565b9081150290604051600060405180830381858888f193505050501580156111c3573d6000803e3d6000fd5b505b6111ce82611b04565b5050565b60007f01ffc9a7000000000000000000000000000000000000000000000000000000007bffffffffffffffffffffffffffffffffffffffffffffffffffffffff1916827bffffffffffffffffffffffffffffffffffffffffffffffffffffffff1916149050919050565b611244611305565b73ffffffffffffffffffffffffffffffffffffffff16611262610c6e565b73ffffffffffffffffffffffffffffffffffffffff16146112b8576040517f08c379a00000000000000000000000000000000000000000000000000000000081526004016112af90612fcb565b60405180910390fd5b565b6112c381611ba5565b611302576040517f08c379a00000000000000000000000000000000000000000000000000000000081526004016112f990612a05565b60405180910390fd5b50565b600033905090565b816004600083815260200190815260200160002060006101000a81548173ffffffffffffffffffffffffffffffffffffffff021916908373ffffffffffffffffffffffffffffffffffffffff160217905550808273ffffffffffffffffffffffffffffffffffffffff1661138083610b1d565b73ffffffffffffffffffffffffffffffffffffffff167f8c5be1e5ebec7d5bd14f71427d1e84f3dd0314c0f7b2291e5b200ac8c7c3b92560405160405180910390a45050565b6000806113d283610b1d565b90508073ffffffffffffffffffffffffffffffffffffffff168473ffffffffffffffffffffffffffffffffffffffff16148061141457506114138185610ec7565b5b8061145257508373ffffffffffffffffffffffffffffffffffffffff1661143a84610853565b73ffffffffffffffffffffffffffffffffffffffff16145b91505092915050565b8273ffffffffffffffffffffffffffffffffffffffff1661147b82610b1d565b73ffffffffffffffffffffffffffffffffffffffff16146114d1576040517f08c379a00000000000000000000000000000000000000000000000000000000081526004016114c89061305d565b60405180910390fd5b600073ffffffffffffffffffffffffffffffffffffffff168273ffffffffffffffffffffffffffffffffffffffff1603611540576040517f08c379a0000000000000000000000000000000000000000000000000000000008152600401611537906130ef565b60405180910390fd5b61154d8383836001611be6565b8273ffffffffffffffffffffffffffffffffffffffff1661156d82610b1d565b73ffffffffffffffffffffffffffffffffffffffff16146115c3576040517f08c379a00000000000000000000000000000000000000000000000000000000081526004016115ba9061305d565b60405180910390fd5b6004600082815260200190815260200160002060006101000a81549073ffffffffffffffffffffffffffffffffffffffff02191690556001600360008573ffffffffffffffffffffffffffffffffffffffff1673ffffffffffffffffffffffffffffffffffffffff168152602001908152602001600020600082825403925050819055506001600360008473ffffffffffffffffffffffffffffffffffffffff1673ffffffffffffffffffffffffffffffffffffffff16815260200190815260200160002060008282540192505081905550816002600083815260200190815260200160002060006101000a81548173ffffffffffffffffffffffffffffffffffffffff021916908373ffffffffffffffffffffffffffffffffffffffff160217905550808273ffffffffffffffffffffffffffffffffffffffff168473ffffffffffffffffffffffffffffffffffffffff167fddf252ad1be2c89b69c2b068fc378daa952ba7f163c4a11628f55a4df523b3ef60405160405180910390a461174f8383836001611bec565b505050565b60006002600083815260200190815260200160002060009054906101000a900473ffffffffffffffffffffffffffffffffffffffff169050919050565b6000600660009054906101000a900473ffffffffffffffffffffffffffffffffffffffff16905081600660006101000a81548173ffffffffffffffffffffffffffffffffffffffff021916908373ffffffffffffffffffffffffffffffffffffffff1602179055508173ffffffffffffffffffffffffffffffffffffffff168173ffffffffffffffffffffffffffffffffffffffff167f8be0079c531659141344cd1fd0a4f28419497f9722a3daafe3b4186f6b6457e060405160405180910390a35050565b8173ffffffffffffffffffffffffffffffffffffffff168373ffffffffffffffffffffffffffffffffffffffff16036118c5576040517f08c379a00000000000000000000000000000000000000000000000000000000081526004016118bc9061315b565b60405180910390fd5b80600560008573ffffffffffffffffffffffffffffffffffffffff1673ffffffffffffffffffffffffffffffffffffffff16815260200190815260200160002060008473ffffffffffffffffffffffffffffffffffffffff1673ffffffffffffffffffffffffffffffffffffffff16815260200190815260200160002060006101000a81548160ff0219169083151502179055508173ffffffffffffffffffffffffffffffffffffffff168373ffffffffffffffffffffffffffffffffffffffff167f17307eab39ab6107e8899845ad3d59bd9653f200f220920489ca2b5937696c31836040516119b69190612291565b60405180910390a3505050565b6119ce84848461145b565b6119da84848484611bf2565b611a19576040517f08c379a0000000000000000000000000000000000000000000000000000000008152600401611a10906131ed565b60405180910390fd5b50505050565b606060405180602001604052806000815250905090565b606060006001611a4584611d79565b01905060008167ffffffffffffffff811115611a6457611a63612575565b5b6040519080825280601f01601f191660200182016040528015611a965781602001600182028036833780820191505090505b509050600082602001820190505b600115611af9578080600190039150507f3031323334353637383961626364656600000000000000000000000000000000600a86061a8153600a8581611aed57611aec61320d565b5b04945060008503611aa4575b819350505050919050565b60005b81811015611ba1576000611b1b6007611ecc565b9050611b276007611eda565b611b313382611ef0565b600a6000815480929190611b449061323c565b9190505550803373ffffffffffffffffffffffffffffffffffffffff167ff5df7d07fef0d8ac7581015ebd1a3b7b7760da84b12f0c8174ae0dcd639cb6a360405160405180910390a3508080611b999061323c565b915050611b07565b5050565b60008073ffffffffffffffffffffffffffffffffffffffff16611bc783611754565b73ffffffffffffffffffffffffffffffffffffffff1614159050919050565b50505050565b50505050565b6000611c138473ffffffffffffffffffffffffffffffffffffffff16611f0e565b15611d6c578373ffffffffffffffffffffffffffffffffffffffff1663150b7a02611c3c611305565b8786866040518563ffffffff1660e01b8152600401611c5e94939291906132d9565b6020604051808303816000875af1925050508015611c9a57506040513d601f19601f82011682018060405250810190611c97919061333a565b60015b611d1c573d8060008114611cca576040519150601f19603f3d011682016040523d82523d6000602084013e611ccf565b606091505b506000815103611d14576040517f08c379a0000000000000000000000000000000000000000000000000000000008152600401611d0b906131ed565b60405180910390fd5b805181602001fd5b63150b7a0260e01b7bffffffffffffffffffffffffffffffffffffffffffffffffffffffff1916817bffffffffffffffffffffffffffffffffffffffffffffffffffffffff191614915050611d71565b600190505b949350505050565b600080600090507a184f03e93ff9f4daa797ed6e38ed64bf6a1f0100000000000000008310611dd7577a184f03e93ff9f4daa797ed6e38ed64bf6a1f0100000000000000008381611dcd57611dcc61320d565b5b0492506040810190505b6d04ee2d6d415b85acef81000000008310611e14576d04ee2d6d415b85acef81000000008381611e0a57611e0961320d565b5b0492506020810190505b662386f26fc100008310611e4357662386f26fc100008381611e3957611e3861320d565b5b0492506010810190505b6305f5e1008310611e6c576305f5e1008381611e6257611e6161320d565b5b0492506008810190505b6127108310611e91576127108381611e8757611e8661320d565b5b0492506004810190505b60648310611eb45760648381611eaa57611ea961320d565b5b0492506002810190505b600a8310611ec3576001810190505b80915050919050565b600081600001549050919050565b6001816000016000828254019250508190555050565b611f0a828260405180602001604052806000815250611f31565b5050565b6000808273ffffffffffffffffffffffffffffffffffffffff163b119050919050565b611f3b8383611f8c565b611f486000848484611bf2565b611f87576040517f08c379a0000000000000000000000000000000000000000000000000000000008152600401611f7e906131ed565b60405180910390fd5b505050565b600073ffffffffffffffffffffffffffffffffffffffff168273ffffffffffffffffffffffffffffffffffffffff1603611ffb576040517f08c379a0000000000000000000000000000000000000000000000000000000008152600401611ff2906133b3565b60405180910390fd5b61200481611ba5565b15612044576040517f08c379a000000000000000000000000000000000000000000000000000000000815260040161203b9061341f565b60405180910390fd5b612052600083836001611be6565b61205b81611ba5565b1561209b576040517f08c379a00000000000000000000000000000000000000000000000000000000081526004016120929061341f565b60405180910390fd5b6001600360008473ffffffffffffffffffffffffffffffffffffffff1673ffffffffffffffffffffffffffffffffffffffff16815260200190815260200160002060008282540192505081905550816002600083815260200190815260200160002060006101000a81548173ffffffffffffffffffffffffffffffffffffffff021916908373ffffffffffffffffffffffffffffffffffffffff160217905550808273ffffffffffffffffffffffffffffffffffffffff16600073ffffffffffffffffffffffffffffffffffffffff167fddf252ad1be2c89b69c2b068fc378daa952ba7f163c4a11628f55a4df523b3ef60405160405180910390a46121a5600083836001611bec565b5050565b6000819050919050565b6121bc816121a9565b82525050565b60006020820190506121d760008301846121b3565b92915050565b6000604051905090565b600080fd5b600080fd5b60007fffffffff0000000000000000000000000000000000000000000000000000000082169050919050565b612226816121f1565b811461223157600080fd5b50565b6000813590506122438161221d565b92915050565b60006020828403121561225f5761225e6121e7565b5b600061226d84828501612234565b91505092915050565b60008115159050919050565b61228b81612276565b82525050565b60006020820190506122a66000830184612282565b92915050565b600081519050919050565b600082825260208201905092915050565b60005b838110156122e65780820151818401526020810190506122cb565b60008484015250505050565b6000601f19601f8301169050919050565b600061230e826122ac565b61231881856122b7565b93506123288185602086016122c8565b612331816122f2565b840191505092915050565b600060208201905081810360008301526123568184612303565b905092915050565b612367816121a9565b811461237257600080fd5b50565b6000813590506123848161235e565b92915050565b6000602082840312156123a05761239f6121e7565b5b60006123ae84828501612375565b91505092915050565b600073ffffffffffffffffffffffffffffffffffffffff82169050919050565b60006123e2826123b7565b9050919050565b6123f2816123d7565b82525050565b600060208201905061240d60008301846123e9565b92915050565b61241c816123d7565b811461242757600080fd5b50565b60008135905061243981612413565b92915050565b60008060408385031215612456576124556121e7565b5b60006124648582860161242a565b925050602061247585828601612375565b9150509250929050565b600080600060608486031215612498576124976121e7565b5b60006124a68682870161242a565b93505060206124b78682870161242a565b92505060406124c886828701612375565b9150509250925092565b6000602082840312156124e8576124e76121e7565b5b60006124f68482850161242a565b91505092915050565b61250881612276565b811461251357600080fd5b50565b600081359050612525816124ff565b92915050565b60008060408385031215612542576125416121e7565b5b60006125508582860161242a565b925050602061256185828601612516565b9150509250929050565b600080fd5b600080fd5b7f4e487b7100000000000000000000000000000000000000000000000000000000600052604160045260246000fd5b6125ad826122f2565b810181811067ffffffffffffffff821117156125cc576125cb612575565b5b80604052505050565b60006125df6121dd565b90506125eb82826125a4565b919050565b600067ffffffffffffffff82111561260b5761260a612575565b5b612614826122f2565b9050602081019050919050565b82818337600083830152505050565b600061264361263e846125f0565b6125d5565b90508281526020810184848401111561265f5761265e612570565b5b61266a848285612621565b509392505050565b600082601f8301126126875761268661256b565b5b8135612697848260208601612630565b91505092915050565b600080600080608085870312156126ba576126b96121e7565b5b60006126c88782880161242a565b94505060206126d98782880161242a565b93505060406126ea87828801612375565b925050606085013567ffffffffffffffff81111561270b5761270a6121ec565b5b61271787828801612672565b91505092959194509250565b6000806040838503121561273a576127396121e7565b5b600061274885828601612375565b925050602061275985828601612375565b9150509250929050565b6000806040838503121561277a576127796121e7565b5b60006127888582860161242a565b92505060206127998582860161242a565b9150509250929050565b7f4e487b7100000000000000000000000000000000000000000000000000000000600052602260045260246000fd5b600060028204905060018216806127ea57607f821691505b6020821081036127fd576127fc6127a3565b5b50919050565b7f4552433732313a20617070726f76616c20746f2063757272656e74206f776e6560008201527f7200000000000000000000000000000000000000000000000000000000000000602082015250565b600061285f6021836122b7565b915061286a82612803565b604082019050919050565b6000602082019050818103600083015261288e81612852565b9050919050565b7f4552433732313a20617070726f76652063616c6c6572206973206e6f7420746f60008201527f6b656e206f776e6572206f7220617070726f76656420666f7220616c6c000000602082015250565b60006128f1603d836122b7565b91506128fc82612895565b604082019050919050565b60006020820190508181036000830152612920816128e4565b9050919050565b7f4552433732313a2063616c6c6572206973206e6f7420746f6b656e206f776e6560008201527f72206f7220617070726f76656400000000000000000000000000000000000000602082015250565b6000612983602d836122b7565b915061298e82612927565b604082019050919050565b600060208201905081810360008301526129b281612976565b9050919050565b7f4552433732313a20696e76616c696420746f6b656e2049440000000000000000600082015250565b60006129ef6018836122b7565b91506129fa826129b9565b602082019050919050565b60006020820190508181036000830152612a1e816129e2565b9050919050565b7f4552433732313a2061646472657373207a65726f206973206e6f74206120766160008201527f6c6964206f776e65720000000000000000000000000000000000000000000000602082015250565b6000612a816029836122b7565b9150612a8c82612a25565b604082019050919050565b60006020820190508181036000830152612ab081612a74565b9050919050565b600081905092915050565b6000612acd826122ac565b612ad78185612ab7565b9350612ae78185602086016122c8565b80840191505092915050565b6000612aff8285612ac2565b9150612b0b8284612ac2565b91508190509392505050565b7f53746172742064617465206d757374206265206265666f726520656e6420646160008201527f7465000000000000000000000000000000000000000000000000000000000000602082015250565b6000612b736022836122b7565b9150612b7e82612b17565b604082019050919050565b60006020820190508181036000830152612ba281612b66565b9050919050565b6000604082019050612bbe60008301856121b3565b612bcb60208301846121b3565b9392505050565b7f4f776e61626c653a206e6577206f776e657220697320746865207a65726f206160008201527f6464726573730000000000000000000000000000000000000000000000000000602082015250565b6000612c2e6026836122b7565b9150612c3982612bd2565b604082019050919050565b60006020820190508181036000830152612c5d81612c21565b9050919050565b7f50726573616c65206973206e6f74206163746976650000000000000000000000600082015250565b6000612c9a6015836122b7565b9150612ca582612c64565b602082019050919050565b60006020820190508181036000830152612cc981612c8d565b9050919050565b7f50726573616c65206973206e6f7420696e2074686520616c6c6f77656420646160008201527f74652072616e6765000000000000000000000000000000000000000000000000602082015250565b6000612d2c6028836122b7565b9150612d3782612cd0565b604082019050919050565b60006020820190508181036000830152612d5b81612d1f565b9050919050565b7f416d6f756e74206d7573742062652067726561746572207468616e207a65726f600082015250565b6000612d986020836122b7565b9150612da382612d62565b602082019050919050565b60006020820190508181036000830152612dc781612d8b565b9050919050565b7f4e487b7100000000000000000000000000000000000000000000000000000000600052601160045260246000fd5b6000612e08826121a9565b9150612e13836121a9565b9250828201905080821115612e2b57612e2a612dce565b5b92915050565b7f457863656564732070726573616c65206d617820737570706c79000000000000600082015250565b6000612e67601a836122b7565b9150612e7282612e31565b602082019050919050565b60006020820190508181036000830152612e9681612e5a565b9050919050565b6000612ea8826121a9565b9150612eb3836121a9565b9250828202612ec1816121a9565b91508282048414831517612ed857612ed7612dce565b5b5092915050565b7f496e73756666696369656e742045746865722073656e74000000000000000000600082015250565b6000612f156017836122b7565b9150612f2082612edf565b602082019050919050565b60006020820190508181036000830152612f4481612f08565b9050919050565b6000612f56826121a9565b9150612f61836121a9565b9250828203905081811115612f7957612f78612dce565b5b92915050565b7f4f776e61626c653a2063616c6c6572206973206e6f7420746865206f776e6572600082015250565b6000612fb56020836122b7565b9150612fc082612f7f565b602082019050919050565b60006020820190508181036000830152612fe481612fa8565b9050919050565b7f4552433732313a207472616e736665722066726f6d20696e636f72726563742060008201527f6f776e6572000000000000000000000000000000000000000000000000000000602082015250565b60006130476025836122b7565b915061305282612feb565b604082019050919050565b600060208201905081810360008301526130768161303a565b9050919050565b7f4552433732313a207472616e7366657220746f20746865207a65726f2061646460008201527f7265737300000000000000000000000000000000000000000000000000000000602082015250565b60006130d96024836122b7565b91506130e48261307d565b604082019050919050565b60006020820190508181036000830152613108816130cc565b9050919050565b7f4552433732313a20617070726f766520746f2063616c6c657200000000000000600082015250565b60006131456019836122b7565b91506131508261310f565b602082019050919050565b6000602082019050818103600083015261317481613138565b9050919050565b7f4552433732313a207472616e7366657220746f206e6f6e20455243373231526560008201527f63656976657220696d706c656d656e7465720000000000000000000000000000602082015250565b60006131d76032836122b7565b91506131e28261317b565b604082019050919050565b60006020820190508181036000830152613206816131ca565b9050919050565b7f4e487b7100000000000000000000000000000000000000000000000000000000600052601260045260246000fd5b6000613247826121a9565b91507fffffffffffffffffffffffffffffffffffffffffffffffffffffffffffffffff820361327957613278612dce565b5b600182019050919050565b600081519050919050565b600082825260208201905092915050565b60006132ab82613284565b6132b5818561328f565b93506132c58185602086016122c8565b6132ce816122f2565b840191505092915050565b60006080820190506132ee60008301876123e9565b6132fb60208301866123e9565b61330860408301856121b3565b818103606083015261331a81846132a0565b905095945050505050565b6000815190506133348161221d565b92915050565b6000602082840312156133505761334f6121e7565b5b600061335e84828501613325565b91505092915050565b7f4552433732313a206d696e7420746f20746865207a65726f2061646472657373600082015250565b600061339d6020836122b7565b91506133a882613367565b602082019050919050565b600060208201905081810360008301526133cc81613390565b9050919050565b7f4552433732313a20746f6b656e20616c7265616479206d696e74656400000000600082015250565b6000613409601c836122b7565b9150613414826133d3565b602082019050919050565b60006020820190508181036000830152613438816133fc565b905091905056fea264697066735822122068225b3dc3f9ca143cd4d2c5c26a480d5f6f20547836f7226faad52948b7b6e864736f6c63430008140033",
  "linkReferences": {},
  "deployedLinkReferences": {}
}